:100000000C9446000C9465000C9465000C946500FB
:100010000C9465000C9465000C9465000C946500CC
:100020000C9465000C9465000C9465000C946500BC
:100030000C9465000C9465000C9465000C946500AC
:100040000C9465000C9465000C949F000C94650062
:100050000C9465000C9465000C9465000C9465008C
:100060000C9465000C9465000C9465000C9465007C
:100070000C9465000C9465000C9465000C9465006C
:100080000C9465000C9465000C94650011241FBE4F
:10009000CFEFD0E1DEBFCDBF11E0A0E0B1E0E0EAFC
:1000A000FAE200E00BBF02C007900D92AA37B10739
:1000B000D9F711E0AAE7B1E001C01D92A439B10758
:1000C000E1F70E947D010C944E150C940000DF9323
:1000D000CF93CDB7DEB7EAE3F0E01082EBE3F0E0D8
:1000E0008FEF8083E7E3F0E01082E8E3F0E08FEF4A
:1000F0008083E4E3F0E01082E5E3F0E08FEF8083BB
:10010000E1E3F0E01082E2E3F0E08FEF8083E2E2EF
:10011000F0E01082E3E2F0E08FEF8083E1E6F0E0D0
:100120001082E2E6F0E08FEF8083E4E6F0E01082F8
:10013000E5E6F0E08FEF8083CF91DF9108951F9285
:100140000F920FB60F9200905B000F9211242F9325
:100150003F934F935F936F937F938F939F93AF934F
:10016000BF93EF93FF93DF93CF9300D0CDB7DEB76C
:10017000ECE2F0E0808180937B0180917A01282F6E
:1001800030E03A83298389819A818230910559F13F
:1001900029813A812330310534F489819A81813073
:1001A000910569F092C029813A812330310579F0B7
:1001B00089819A818430910509F463C086C0809159
:1001C0007B018093800183E080937A017EC08091DF
:1001D0007B01882F90E090937F0180937E0182E0E5
:1001E00080937A0172C080917B01882F90E0909378
:1001F0008201809381018091810190918201982FE9
:100200008827909382018093810120918101309110
:10021000820180917E0190917F01822B932B90939C
:1002200082018093810110927F0110927E011092D1
:100230007D0110927C0180918101909182010E9448
:10024000A113909384018093830180918301909105
:100250008401009789F0809183019091840120911D
:1002600081013091820160E070E0A9010E94A61432
:1002700084E080937A0129C080E091E00E94E2143A
:1002800024C0209183013091840180917C01909160
:100290007D01F901E80FF91F80917B018083809136
:1002A0007C0190917D01019690937D0180937C016A
:1002B000209181013091820180917C0190917D019A
:1002C0002817390711F410927A010F900F90CF91EF
:1002D000DF91FF91EF91BF91AF919F918F917F91AE
:1002E0006F915F914F913F912F910F9000925B0022
:1002F0000F900FBE0F901F9018950F931F93DF93D1
:10030000CF93CDB7DEB7C051D1400FB6F894DEBF62
:100310000FBECDBF88E091E0FE013796DF019C0162
:100320001D9221503040E1F71E821D821C821B82EB
:100330001A8219821092800110928201109281011A
:1003400010928401109283010E94E00C0E943A04F2
:1003500078948EE091E00E94E21481E080937A012B
:1003600080918001A82FB0E0C15FDE4FB983A883E0
:10037000CF50D140C15FDE4F28813981CF50D1406D
:100380002130310559F0C15FDE4F88819981CF500E
:10039000D1408330910509F459C0E2CF2091810109
:1003A0003091820180917C0190917D01281739075D
:1003B000B9F680917A01882399F680918301909112
:1003C0008401FC01808191819E838D8380918301D2
:1003D0009091840102969A83898380918101909102
:1003E0008201DC0112972D813E81E981FA8181E051
:1003F000B90140E09F018D010E944A0810927D01E1
:1004000010927C0110928001109282011092810161
:1004100081E080937A0180918301909184010E9410
:100420004E1482E08093850110928701109286011C
:1004300080918601909187019C012D5F3F4F85E857
:1004400091E0B90140E00E944D0D8ACF20918101D9
:100450003091820180917C0190917D0128173907AC
:1004600009F07ECF80917A01882309F079CF10922C
:100470007D0110927C0110928001109282011092F5
:10048000810181E080937A018091830190918401C0
:10049000FC01808191819E838D8380918301909165
:1004A0008401FC013296808191819C838B838D81B4
:1004B0009E819E01295F3F4FEB81FC8160E0A90195
:1004C0009F010E94AA0884E0809385018B819C8112
:1004D0009093870180938601CE01079690938901BE
:1004E0008093880185E891E063E070E040E00E943D
:1004F0004D0D2091860130918701CE010796B901FB
:1005000040E00E944D0D80918301909184010E94F2
:100510004E1426CFDF93CF93CDB7DEB768970FB6D3
:10052000F894DEBF0FBECDBF80E090E0A0E2B1E462
:100530008D8B9E8BAF8BB88F6D897E898F89988DBF
:100540002AEF3DEE4BE650E40E94710FDC01CB0137
:10055000898B9A8BAB8BBC8B69897A898B899C89B7
:1005600020E030E040E85FE30E94771188231CF42C
:1005700081E0888B91C069897A898B899C8920E088
:1005800030E04FE753E40E94171118160CF07BC0BF
:100590006D897E898F89988D20E030E04AE754E4A8
:1005A0000E946B10DC01CB018C879D87AE87BF87D3
:1005B0006C857D858E859F852DEC3CEC4CE255E469
:1005C0000E94710FDC01CB0188879987AA87BB87BE
:1005D000688579858A859B8520E030E040E85FE387
:1005E0000E94771188232CF481E090E09F838E8312
:1005F0003FC0688579858A859B8520E03FEF4FE77E
:1006000057E40E94171118164CF56C857D858E8570
:100610009F8520E030E040E251E40E94710FDC0150
:10062000CB01BC01CD010E949B0DDC01CB019F835E
:100630008E830FC084E191E09D838C838C819D81AA
:100640000197F1F79D838C838E819F8101979F8312
:100650008E838E819F81009769F724C06885798594
:100660008A859B850E949B0DDC01CB019F838E8335
:100670008E819F819B838A838A819B810197F1F779
:100680009B838A830FC069897A898B899C890E94A0
:100690009B0DDC01CB01888B8889898389818A95B0
:1006A000F1F78983A8E3B0E0E8E3F0E080818E7F92
:1006B0008C9368960FB6F894DEBF0FBECDBFCF9176
:1006C000DF910895DF93CF93CDB7DEB768970FB66C
:1006D000F894DEBF0FBECDBFA8E3B0E0E8E3F0E0E2
:1006E000808181608C9380E090E0A0E2B1E48D8B0A
:1006F0009E8BAF8BB88F6D897E898F89988D2AEFFD
:100700003DEE4BE650E40E94710FDC01CB01898B7A
:100710009A8BAB8BBC8B69897A898B899C8920E009
:1007200030E040E85FE30E94771188231CF481E009
:10073000888B91C069897A898B899C8920E030E017
:100740004FE753E40E94171118160CF07BC06D8917
:100750007E898F89988D20E030E04AE754E40E943A
:100760006B10DC01CB018C879D87AE87BF876C85C2
:100770007D858E859F852DEC3CEC4CE255E40E94F6
:10078000710FDC01CB0188879987AA87BB876885B1
:1007900079858A859B8520E030E040E85FE30E9410
:1007A000771188232CF481E090E09F838E833FC0F3
:1007B000688579858A859B8520E03FEF4FE757E480
:1007C0000E94171118164CF56C857D858E859F85C6
:1007D00020E030E040E251E40E94710FDC01CB01E7
:1007E000BC01CD010E949B0DDC01CB019F838E8358
:1007F0000FC084E191E09D838C838C819D81019762
:10080000F1F79D838C838E819F8101979F838E83D7
:100810008E819F81009769F724C0688579858A85D4
:100820009B850E949B0DDC01CB019F838E838E8173
:100830009F819B838A838A819B810197F1F79B83A8
:100840008A830FC069897A898B899C890E949B0D54
:10085000DC01CB01888B8889898389818A95F1F7AE
:10086000898368960FB6F894DEBF0FBECDBFCF91D7
:10087000DF910895DF93CF93CDB7DEB7A7E3B0E064
:10088000E7E3F0E0808187608C93A7E3B0E0E7E3E3
:10089000F0E08081877F8C93A8E3B0E0E8E3F0E0AC
:1008A000808187608C93A8E3B0E0E8E3F0E080818A
:1008B00084608C93A7E3B0E0E7E3F0E0808180619F
:1008C0008C93ADE2B0E0EDE2F0E080818C658C933A
:1008D000AEE2B0E0EEE2F0E0808181608C930E94B5
:1008E0006203CF91DF910895DF93CF9300D0CDB70E
:1008F000DEB78A83EFE2F0E08A818083EEE2F0E007
:1009000080818823DCF7EFE2F0E0808189838981B0
:100910000F900F90CF91DF910895DF93CF930F92B7
:10092000CDB7DEB719820E948A0287ED0E94740457
:1009300080E00E94740489830E94620389810F9081
:10094000CF91DF910895DF93CF9300D0CDB7DEB77D
:100950000E948D0489838981882F90E08170907036
:10096000882311F01A8202C081E08A838A810F9065
:100970000F90CF91DF910895DF93CF9300D0CDB743
:10098000DEB78FEF898309C00E948D048A838A8134
:10099000882334F089818150898389818823A1F754
:1009A00089810F900F90CF91DF9108950F931F933E
:1009B000DF93CF9300D00F92CDB7DEB79B838A83AE
:1009C0000E94BC040E948A028FE90E94740419826A
:1009D00010C08981282F30E08A819B818C01020F11
:1009E000131F80E00E947404F801808389818F5F67
:1009F00089838981843068F30E9462030F900F908D
:100A00000F90CF91DF911F910F910895DF93CF93B6
:100A1000CDB7DEB70E94BC040E948A0289EB0E9417
:100A200074040E946203CF91DF910895DF93CF9306
:100A3000CDB7DEB70E94BC040E948A028BEA0E94F6
:100A400074040E946203CF91DF910895DF93CF93E6
:100A500000D000D00F92CDB7DEB78DE38A838AE253
:100A60008B838FE78C8389EA8D830E94BC040E946C
:100A70008A0219820EC08981282F30E0CE010296A9
:100A8000FC01E20FF31F80810E94740489818F5F53
:100A900089838981843078F30E9462030F900F90DC
:100AA0000F900F900F90CF91DF910895DF93CF9328
:100AB00000D000D00F92CDB7DEB78DE38A838AE2F3
:100AC0008B838FE78C838AE98D830E94BC040E940C
:100AD0008A0219820EC08981282F30E0CE01029649
:100AE000FC01E20FF31F80810E94740489818F5FF3
:100AF00089838981843078F30E9462030F900F907C
:100B00000F900F900F90CF91DF910895DF93CF93C7
:100B100000D000D00F92CDB7DEB78DE38A838AE292
:100B20008B838FE78C838FEC8D830E94BC040E94A3
:100B30008A0219820EC08981282F30E0CE010296E8
:100B4000FC01E20FF31F80810E94740489818F5F92
:100B500089838981843078F30E9462030F900F901B
:100B60000F900F900F90CF91DF910895DF93CF9367
:100B7000CDB7DEB727970FB6F894DEBF0FBECDBF57
:100B80009F838E838DE38A838AE28B838FE78C83B6
:100B90008CEF8D830E94BC040E948A0219820EC0D1
:100BA0008981282F30E0CE010296FC01E20FF31F6D
:100BB00080810E94740489818F5F89838981843058
:100BC00078F319820EC08981282F30E08E819F81B1
:100BD000FC01E20FF31F80810E94740489818F5F02
:100BE00089838981883078F30E94620327960FB643
:100BF000F894DEBF0FBECDBFCF91DF9108950F9364
:100C00001F93DF93CF93CDB7DEB727970FB6F89436
:100C1000DEBF0FBECDBF9F838E8382E38A831B829C
:100C20001C821D820E94BC040E948A0219820EC08E
:100C30008981282F30E0CE010296FC01E20FF31FDC
:100C400080810E94740489818F5F898389818430C7
:100C500078F3198210C08981282F30E08E819F811E
:100C60008C01020F131F80E00E947404F80180833E
:100C700089818F5F89838981883068F30E9462034C
:100C800027960FB6F894DEBF0FBECDBFCF91DF9190
:100C90001F910F910895DF93CF93CDB7DEB768977B
:100CA0000FB6F894DEBF0FBECDBF88E0FE013496CC
:100CB000DF01982F1D929A95E9F7DE011C96BD8BF6
:100CC000AC8BE7E1F1E0FF8BEE8BF8E0F88FAE89BB
:100CD000BF890C90EE89FF893196FF8BEE8BAC8932
:100CE000BD890C92EC89FD893196FD8BEC8BF88DDA
:100CF000F150F88F888D882351F781E089830E9415
:100D00002605CE0104960E94B605CE010C960E94DF
:100D1000FF051B821A8212C02A813B81CE010C96EC
:100D2000FC01E20FF31F8081882319F089818F5F16
:100D300089838A819B8101969B838A838A819B8197
:100D40008830910548F30E945605898168960FB650
:100D5000F894DEBF0FBECDBFCF91DF910895DF9332
:100D6000CF93CDB7DEB729970FB6F894DEBF0FBE8D
:100D7000CDBF6E837F83888799871A821B821C82EE
:100D80001D820E94BC040E948A0219820EC08981C1
:100D9000282F30E0CE010296FC01E20FF31F808184
:100DA0000E94740489818F5F89838981843078F3FC
:100DB0008E819F81A885B985CD01AA27BB270E9476
:100DC00074048E819F81A885B985892F9A2FAB2FB6
:100DD000BB270E9474048E810E9474040E946203E7
:100DE00029960FB6F894DEBF0FBECDBFCF91DF912D
:100DF00008950F931F93DF93CF93CDB7DEB7279757
:100E00000FB6F894DEBF0FBECDBF9F838E8385E300
:100E10008A831B821C821D820E94BC040E948A025B
:100E200019820EC08981282F30E0CE010296FC0184
:100E3000E20FF31F80810E94740489818F5F898390
:100E40008981843078F3198210C08981282F30E09D
:100E50008E819F818C01020F131F80E00E94740419
:100E6000F801808389818F5F89838981883068F365
:100E70000E94620327960FB6F894DEBF0FBECDBF67
:100E8000CF91DF911F910F910895DF93CF93CDB74D
:100E9000DEB729970FB6F894DEBF0FBECDBF8B83A8
:100EA0007D836C835F834E83398728870E94BC04CF
:100EB0000E948A028B81813021F484E80E947404AC
:100EC00003C087E80E9474048FEF0E9474048C8131
:100ED0009D81892F99270E9474048C810E9474043B
:100EE0001A8219820FC02E813F8189819A81F9016E
:100EF000E80FF91F80810E94740489819A8101960C
:100F00009A83898329813A818885998528173907A9
:100F100050F30E94620329960FB6F894DEBF0FBE0D
:100F2000CDBFCF91DF9108950F931F93DF93CF93A0
:100F3000CDB7DEB729970FB6F894DEBF0FBECDBF91
:100F40008B837D836C835F834E83398728870E94E0
:100F5000BC040E948A028B81813021F484ED0E94BE
:100F6000740403C086ED0E9474048FEF0E94740421
:100F70008C819D81892F99270E9474048C810E9405
:100F800074048FEF0E9474041A82198211C02E819A
:100F90003F8189819A818901080F191F8FEF0E9473
:100FA0007404F801808389819A8101969A838983E8
:100FB00029813A81888599852817390740F30E944D
:100FC000620329960FB6F894DEBF0FBECDBFCF9156
:100FD000DF911F910F910895DF93CF9300D00F926F
:100FE000CDB7DEB789837B836A830E94BC040E94ED
:100FF0008A028981813021F483E80E94740403C04D
:1010000086E80E9474048A819B81880F892F881F3B
:10101000990B91950E9474048A81880F0E94740430
:101020008FEF0E9474040E9462030F900F900F9044
:10103000CF91DF910895DF93CF9300D00F92CDB77A
:10104000DEB789837B836A830E94BC040E948A0284
:101050008981813021F483E50E94740403C085E511
:101060000E9474048A819B81880F892F881F990BA5
:1010700091950E9474048A81880F0E9474048FEFF6
:101080000E9474040E9462030F900F900F90CF9102
:10109000DF9108950F931F93DF93CF93CDB7DEB702
:1010A0002A970FB6F894DEBF0FBECDBF8B837D832A
:1010B0006C834E8338872F831A8709870E94BC046C
:1010C0000E948A028B81813021F482E80E9474049C
:1010D00003C085E80E9474048C819D81880F892F4C
:1010E000881F990B91950E9474048C81282F220FE0
:1010F0008E81882F90E0892F990F990B822B0E9467
:1011000074048E810E9474041A8219820FC02F8188
:10111000388589819A81F901E80FF91F80810E9441
:10112000740489819A8101969A83898329813A81FD
:1011300089859A852817390750F30E9462032A96F9
:101140000FB6F894DEBF0FBECDBFCF91DF911F91D8
:101150000F9108950F931F93DF93CF93CDB7DEB711
:1011600029970FB6F894DEBF0FBECDBF9C838B834B
:101170006D835F834E83398728870E94BC040E9459
:101180008A0282ED0E9474048B819C81880F892FD2
:10119000881F990B91950E9474048B81282F220F30
:1011A0008D81882F90E0892F990F990B822B0E94B7
:1011B00074048D810E9474041A82198208C08FEF12
:1011C0000E94740489819A8101969A838983898116
:1011D0009A818430910598F31A82198211C02E8168
:1011E0003F8189819A818901080F191F8FEF0E9421
:1011F0007404F801808389819A8101969A83898396
:1012000029813A81888599852817390740F30E94FA
:10121000620329960FB6F894DEBF0FBECDBFCF9103
:10122000DF911F910F9108950F931F93DF93CF9339
:10123000CDB7DEB729970FB6F894DEBF0FBECDBF8E
:101240009C838B836D835F834E83398728870E94BD
:10125000BC040E948A0288EE0E9474048B819C81E7
:10126000880F892F881F990B91950E9474048B8198
:10127000282F220F8D81882F90E0892F990F990BAD
:10128000822B0E9474048D810E9474041A82198238
:1012900008C08FEF0E94740489819A8101969A8315
:1012A000898389819A818430910598F31A82198201
:1012B00011C02E813F8189819A818901080F191FF0
:1012C0008FEF0E947404F801808389819A810196CE
:1012D0009A83898329813A818885998528173907D6
:1012E00040F30E94620329960FB6F894DEBF0FBE4A
:1012F000CDBFCF91DF911F910F910895DF93CF93D1
:1013000000D000D00F92CDB7DEB787EC8A8384E996
:101310008B8380E88C838AE98D830E94BC040E94C1
:101320008A0219820EC08981282F30E0CE010296F0
:10133000FC01E20FF31F80810E94740489818F5F9A
:1013400089838981843078F30E9462030F900F9023
:101350000F900F900F90CF91DF910895DF93CF936F
:10136000CDB7DEB7E0970FB6F894DEBF0FBECDBFA6
:10137000A8E3B0E0E8E3F0E080818F7E8C9380E02A
:1013800090E0A0E2B1E48DA79EA7AFA7B8AB6DA592
:101390007EA58FA598A92AEF3DEE4BE650E40E946A
:1013A000710FDC01CB0189A79AA7ABA7BCA769A5E0
:1013B0007AA58BA59CA520E030E040E85FE30E9481
:1013C000771188231CF481E088A791C069A57AA5CC
:1013D0008BA59CA520E030E04FE753E40E94171155
:1013E00018160CF07BC06DA57EA58FA598A920E0EE
:1013F00030E04AE754E40E946B10DC01CB018CA37F
:101400009DA3AEA3BFA36CA17DA18EA19FA12DEC36
:101410003CEC4CE255E40E94710FDC01CB0188A347
:1014200099A3AAA3BBA368A179A18AA19BA120E04B
:1014300030E040E85FE30E94771188232CF481E0DC
:1014400090E09F8F8E8F3FC068A179A18AA19BA158
:1014500020E03FEF4FE757E40E94171118164CF5B4
:101460006CA17DA18EA19FA120E030E040E251E47B
:101470000E94710FDC01CB01BC01CD010E949B0DCC
:10148000DC01CB019F8F8E8F0FC084E191E09D8F97
:101490008C8F8C8D9D8D0197F1F79D8F8C8F8E8D0C
:1014A0009F8D01979F8F8E8F8E8D9F8D009769F7EF
:1014B00024C068A179A18AA19BA10E949B0DDC0197
:1014C000CB019F8F8E8F8E8D9F8D9B8F8A8F8A8D64
:1014D0009B8D0197F1F79B8F8A8F0FC069A57AA525
:1014E0008BA59CA50E949B0DDC01CB0188A788A53C
:1014F000898F898D8A95F1F7898FA8E3B0E0E8E3B9
:10150000F0E0808180618C9380E090E0A0E2B1E423
:101510008D8B9E8BAF8BB88F6D897E898F89988DCF
:101520002AEF3DEE4BE650E40E94710FDC01CB0147
:10153000898B9A8BAB8BBC8B69897A898B899C89C7
:1015400020E030E040E85FE30E94771188231CF43C
:1015500081E0888B91C069897A898B899C8920E098
:1015600030E04FE753E40E94171118160CF07BC0CF
:101570006D897E898F89988D20E030E04AE754E4B8
:101580000E946B10DC01CB018C879D87AE87BF87E3
:101590006C857D858E859F852DEC3CEC4CE255E479
:1015A0000E94710FDC01CB0188879987AA87BB87CE
:1015B000688579858A859B8520E030E040E85FE397
:1015C0000E94771188232CF481E090E09F838E8322
:1015D0003FC0688579858A859B8520E03FEF4FE78E
:1015E00057E40E94171118164CF56C857D858E8581
:1015F0009F8520E030E040E251E40E94710FDC0161
:10160000CB01BC01CD010E949B0DDC01CB019F836E
:101610008E830FC084E191E09D838C838C819D81BA
:101620000197F1F79D838C838E819F8101979F8322
:101630008E838E819F81009769F724C068857985A4
:101640008A859B850E949B0DDC01CB019F838E8345
:101650008E819F819B838A838A819B810197F1F789
:101660009B838A830FC069897A898B899C890E94B0
:101670009B0DDC01CB01888B8889898389818A95C0
:10168000F1F78983E0960FB6F894DEBF0FBECDBFA9
:10169000CF91DF910895DF93CF93CDB7DEB76997F0
:1016A0000FB6F894DEBF0FBECDBFCE0101969E8B64
:1016B0008D8BAFE1B1E0B88FAF8BBAE0B98FEF8916
:1016C000F88D00808F89988D0196988F8F8BAD89CA
:1016D000BE890C92ED89FE893196FE8BED8BF98DDA
:1016E000F150F98F898D882351F78AE0FE013B96EE
:1016F000DF01982F1D929A95E9F781E060E070E094
:101700009E012F5F3F4FA9012AE030E00E9445076C
:101710009E01255F3F4F81E060E070E0A9012AE073
:1017200030E00E94940769960FB6F894DEBF0FBEB2
:10173000CDBFCF91DF9108950F931F93DF93CF9388
:10174000CDB7DEB769970FB6F894DEBF0FBECDBF39
:10175000CE0101969E8B8D8BA9E2B1E0B88FAF8B45
:10176000BAE0B98FEF89F88D00808F89988D019646
:10177000988F8F8BAD89BE890C92ED89FE89319649
:10178000FE8BED8BF98DF150F98F898D882351F700
:101790008AE0FE013B96DF01982F1D929A95E9F7AA
:1017A00081E060E070E040E09E012F5F3F4F0AE083
:1017B00010E00E944A089E01255F3F4F80E090E0C4
:1017C00060E0A9012AE030E00E94AA0869960FB6FD
:1017D000F894DEBF0FBECDBFCF91DF911F910F9167
:1017E0000895DF93CF93CDB7DEB769970FB6F8941E
:1017F000DEBF0FBECDBFCE0101969E8B8D8BA3E3C6
:10180000B1E0B88FAF8BBAE0B98FEF89F88D008067
:101810008F89988D0196988F8F8BAD89BE890C9298
:10182000ED89FE893196FE8BED8BF98DF150F98FA4
:10183000898D882351F78AE0FE013B96DF01982FBE
:101840001D929A95E9F781E060E070E09E012F5FBC
:101850003F4FA9012AE030E00E94450781E060E0A7
:1018600070E00E94EC079E01255F3F4F80E090E012
:1018700060E0A9012AE030E00E94140969960FB6E1
:10188000F894DEBF0FBECDBFCF91DF910895DF93F7
:10189000CF93CDB7DEB769970FB6F894DEBF0FBE12
:1018A000CDBFCE0101969E8B8D8BADE3B1E0B88F9D
:1018B000AF8BBAE0B98FEF89F88D00808F89988D52
:1018C0000196988F8F8BAD89BE890C92ED89FE8928
:1018D0003196FE8BED8BF98DF150F98F898D882330
:1018E00051F78AE0FE013B96DF01982F1D929A95F1
:1018F000E9F781E060E070E09E012F5F3F4FA901B2
:101900002AE030E00E94450781E060E070E00E943C
:10191000EC0781E060E070E00E941B089E01255FFB
:101920003F4F81E060E070E0A9012AE030E00E94D2
:10193000940769960FB6F894DEBF0FBECDBFCF9166
:10194000DF910895DF93CF9300D000D00F92CDB7F1
:10195000DEB789837B836A838981873079F420911C
:1019600092013091930185E591E061E070E047E0FC
:1019700050E00E94AD141D821C8218C089818A30FB
:1019800031F42A813B818DE0B9010E94A20CEBE287
:10199000F0E08081882F90E0807290700097B9F31A
:1019A000ECE2F0E0898180831D821C828C819D8124
:1019B0000F900F900F900F900F90CF91DF9108959F
:1019C000DF93CF93CDB7DEB7EBE2F0E082E0808328
:1019D000EAE2F0E088E98083E5E9F0E086E08083F0
:1019E000E9E2F0E08BE08083E0E9F0E01082EBE2F6
:1019F000F0E082E08083EAE9F0E088E98083EDE9C5
:101A0000F0E086E08083E9E9F0E08BE08083E8E9BC
:101A1000F0E0108287E491E090938F0180938E0133
:101A200080918E0190918F0190939101809390010C
:101A30008DE591E00E94E214CF91DF910895DF934C
:101A4000CF930F92CDB7DEB78983EBE2F0E08081D0
:101A5000882F90E0807290700097B9F3ECE2F0E08C
:101A6000898180830F90CF91DF910895DF93CF9389
:101A70000F92CDB7DEB78983EBE9F0E08081882F44
:101A800090E0807290700097B9F3ECE9F0E0898102
:101A900080830F90CF91DF910895DF93CF93CDB7DF
:101AA000DEB728970FB6F894DEBF0FBECDBF9C837C
:101AB0008B837E836D834F838F81813029F486E30E
:101AC0009DE09A83898310C08FE19DE09A8389838A
:101AD0000BC0EB81FC818081E981FA8109958B81C2
:101AE0009C8101969C838B8318868D819E810097B3
:101AF00011F081E088878D819E8101979E838D837F
:101B00008885882331F728960FB6F894DEBF0FBE7C
:101B1000CDBFCF91DF910895DF93CF93CDB7DEB7DF
:101B2000EBE2F0E080818823DCF7ECE2F0E08081FA
:101B3000CF91DF910895EF92FF920F931F937B0156
:101B40008C0120E030E040E05FE40E9447118823F0
:101B50008CF0C801B70120E030E040E05FE40E9473
:101B6000130F0E94A7119B01AC0120503040404050
:101B7000504806C0C801B7010E94A7119B01AC01E3
:101B8000B901CA011F910F91FF90EF900895A0E055
:101B9000B0E0EDECFDE00C941715DC012B01FA012F
:101BA0009C91923008F439C1EB018881823008F4AD
:101BB00033C1943069F4843009F02FC111969C919F
:101BC00011978981981709F428C1ACE6B1E025C1C5
:101BD000843009F421C18230A9F4923009F01DC18A
:101BE0009A01AD0188E0EA010990AE01E90109928C
:101BF0009E018150C1F7E201898111969C91892350
:101C0000818308C1923009F407C112962D903C904F
:101C10001397EB018A819B811496AD90BD90CD9076
:101C2000DC901797EC80FD800E811F819101281BAD
:101C3000390BB90137FF04C066277727621B730B86
:101C4000603271050CF061C0121613066CF5370195
:101C50004801062E04C096948794779467940A945A
:101C6000D2F721E030E040E050E004C0220F331F03
:101C7000441F551F6A95D2F72150304040405040D4
:101C80002E213F21402351232115310541055105C6
:101C900021F021E030E040E050E079018A01E628BF
:101CA000F728082919293CC0232BD1F1260E371E0D
:101CB00035014601062E04C0969487947794679464
:101CC0000A94D2F721E030E040E050E004C0220F57
:101CD000331F441F551F6A95D2F7215030404040B2
:101CE00050402A213B214C215D2121153105410520
:101CF000510521F021E030E040E050E059016A0157
:101D0000A628B728C828D9280BC0821593052CF01F
:101D10001C01AA24BB24650103C0EE24FF24870113
:101D200011969C91D20111968C91981709F445C097
:101D3000992339F0A80197012A193B094C095D093B
:101D400006C0A60195012E193F09400B510B57FD06
:101D500008C01182338222822483358346835783CD
:101D60001DC081E081833382228288279927DC018C
:101D7000821B930BA40BB50B84839583A683B78337
:101D80000DC0220F331F441F551F24833583468304
:101D90005783828193810197938382832481358144
:101DA00046815781DA01C9010197A109B1098F5F05
:101DB0009F4FAF4FBF4328F30BC0918333822282E2
:101DC000EA0CFB1C0C1D1D1DE482F58206831783A3
:101DD00083E08083248135814681578157FF1AC073
:101DE000C901AA2797FDA095BA2F81709070A070A5
:101DF000B0705695479537952795822B932BA42B3A
:101E0000B52B84839583A683B783828193810196C2
:101E100093838283DF0101C0D201CD01CDB7DEB74C
:101E2000E2E10C943315A0E2B0E0E9E1FFE00C94AC
:101E3000231569837A838B839C832D833E834F8311
:101E40005887E9E0EE2EF12CEC0EFD1ECE01019636
:101E5000B7010E94D0128E010F5E1F4FCE01059672
:101E6000B8010E94D0128A8991E089278A8BC70124
:101E7000B801AE01475E5F4F0E94C70D0E94FB1183
:101E8000A096E6E00C943F15A0E2B0E0EAE4FFE0A3
:101E90000C94231569837A838B839C832D833E83E3
:101EA0004F835887F9E0EF2EF12CEC0EFD1ECE018A
:101EB0000196B7010E94D0128E010F5E1F4FCE0116
:101EC0000596B8010E94D012C701B801AE01475E65
:101ED0005F4F0E94C70D0E94FB11A096E6E00C9494
:101EE0003F15A0E2B0E0E7E7FFE00C941715698327
:101EF0007A838B839C832D833E834F835887CE01C7
:101F00000196BE01675F7F4F0E94D012CE010596F9
:101F1000BE016F5E7F4F0E94D0129985923088F08B
:101F200089898230C8F0943019F4823051F404C0A9
:101F3000843029F4923081F48CE691E0C6C092306E
:101F400049F420E09A858A89981321E02A87CE01F6
:101F50000996BBC0823049F420E09A858A8998139B
:101F600021E02A8BCE014196B0C02D843E844F845F
:101F700058886D887E888F88988CEE24FF2487018E
:101F8000AA24BB24650140E050E060E070E0E0E09E
:101F9000F0E0C10181709070892BE9F0E60CF71C2C
:101FA000081D191D9A01AB012A0D3B1D4C1D5D1D1D
:101FB00080E090E0A0E0B0E0E614F7040805190521
:101FC00020F481E090E0A0E0B0E0BA01A901480F60
:101FD000591F6A1F7B1FAA0CBB1CCC1CDD1C97FE63
:101FE00008C081E090E0A0E0B0E0A82AB92ACA2A9F
:101FF000DB2A3196E032F10549F0660C771C881C2B
:10200000991C5694479437942794C3CFFA85EA894C
:102010002B893C898B859C85280F391F2E5F3F4F6C
:1020200017C0CA0181709070892B61F016950795D1
:10203000F794E79480E090E0A0E0B0E8E82AF92A7D
:102040000A2B1B2B76956795579547952F5F3F4F2A
:1020500077FDE7CF0CC0440F551F661F771F17FD94
:102060004160EE0CFF1C001F111F2150304040301A
:1020700090E0590790E0690790E4790760F32B8FAF
:102080003C8FDB01CA018F779070A070B0708034F4
:102090009105A105B10561F447FD0AC0E114F10401
:1020A0000105110529F0405C5F4F6F4F7F4F40786D
:1020B0001A8EFE1711F081E08A8F4D8F5E8F6F8F21
:1020C00078A383E0898FCE0149960E94FB11A096E8
:1020D000E2E10C943315A8E1B0E0E1E7F0E10C9403
:1020E0001F1569837A838B839C832D833E834F8363
:1020F0005887B9E0EB2EF12CEC0EFD1ECE010196B7
:10210000B7010E94D0128E010F5E1F4FCE010596BF
:10211000B8010E94D0122985223008F47EC0398986
:10212000323010F4B8017CC08A859A8989278A8761
:10213000243011F0223031F4231709F06EC06CE620
:1021400071E06EC0343039F41D861E861F86188AF1
:102150001C861B8604C0323021F484E08987B701D5
:102160005FC02B853C858B899C89281B390B3C875C
:102170002B87ED84FE840F851889AD88BE88CF88B3
:10218000D88CEA14FB040C051D0540F4EE0CFF1C72
:10219000001F111F215030403C872B8720E030E08A
:1021A00040E050E080E090E0A0E0B0E460E070E06B
:1021B000EA14FB040C051D0540F0282B392B4A2B93
:1021C0005B2BEA18FB080C091D09B695A795979596
:1021D0008795EE0CFF1C001F111F6F5F7F4F6F3143
:1021E000710531F7DA01C9018F779070A070B07076
:1021F00080349105A105B10561F427FD0AC0E11401
:10220000F1040105110529F0205C3F4F4F4F5F4F4E
:1022100020782D873E874F87588BBE01675F7F4FA1
:10222000CB010E94FB116896EAE00C943B15A8E1F3
:10223000B0E0EDE1F1E10C94231569837A838B839F
:102240009C832D833E834F83588789E0E82EF12CB1
:10225000EC0EFD1ECE010196B7010E94D0128E0138
:102260000F5E1F4FCE010596B8010E94D0128985DE
:10227000823040F08989823028F0C701B8010E947D
:10228000481301C08FEF6896E6E00C943F15A8E173
:10229000B0E0EDE4F1E10C94231569837A838B833C
:1022A0009C832D833E834F83588789E0E82EF12C51
:1022B000EC0EFD1ECE010196B7010E94D0128E01D8
:1022C0000F5E1F4FCE010596B8010E94D01289857E
:1022D000823040F08989823028F0C701B8010E941D
:1022E000481301C08FEF6896E6E00C943F15A8E113
:1022F000B0E0EDE7F1E10C94231569837A838B83D9
:102300009C832D833E834F83588789E0E82EF12CF0
:10231000EC0EFD1ECE010196B7010E94D0128E0177
:102320000F5E1F4FCE010596B8010E94D01289851D
:10233000823040F08989823028F0C701B8010E94BC
:10234000481301C081E06896E6E00C943F15ACE0CC
:10235000B0E0EDEAF1E10C94271569837A838B8371
:102360009C83CE010196BE016B5F7F4F0E94D0120D
:102370008D81823061F1823050F1843021F48E8180
:10238000882351F12EC02F81388537FD20C06E8102
:102390002F3131051CF06623F9F023C08EE190E067
:1023A000821B930B29853A854B855C8504C0569525
:1023B0004795379527958A95D2F76623B1F05095C2
:1023C0004095309521953F4F4F4F5F4F0EC020E015
:1023D00030E040E050E009C02FEF3FEF4FEF5FE704
:1023E00004C020E030E040E050E8B901CA012C967A
:1023F000E2E00C944315DF92EF92FF920F931F934C
:10240000FC01E480F58006811781D18080818230D3
:1024100048F480E090E0A0E1B0E0E82AF92A0A2B35
:102420001B2BA5C0843009F49FC0823021F4EE2418
:10243000FF24870105C0E114F1040105110519F419
:10244000E0E0F0E096C0628173819FEF6238790727
:102450000CF05BC022E83FEF261B370B2A31310519
:102460002CF020E030E040E050E02AC0B801A701A5
:10247000022E04C076956795579547950A94D2F732
:1024800081E090E0A0E0B0E004C0880F991FAA1F8F
:10249000BB1F2A95D2F70197A109B1098E219F216F
:1024A000A023B1230097A105B10521F081E090E0C0
:1024B000A0E0B0E09A01AB01282B392B4A2B5B2B13
:1024C000DA01C9018F779070A070B07080349105E7
:1024D000A105B10539F427FF09C0205C3F4F4F4FDC
:1024E0005F4F04C0215C3F4F4F4F5F4FE0E0F0E093
:1024F0002030A0E03A07A0E04A07A0E45A0710F015
:10250000E1E0F0E079018A0127C06038710564F5E7
:10251000FB01E158FF4FD801C7018F779070A07081
:10252000B07080349105A105B10539F4E7FE0DC006
:1025300080E490E0A0E0B0E004C08FE390E0A0E091
:10254000B0E0E80EF91E0A1F1B1F17FF05C0169505
:102550000795F794E794319687E016950795F794D9
:10256000E7948A95D1F705C0EE24FF248701EFEFA9
:10257000F0E06E2F679566276795902F9F77D79429
:10258000DD24D7948E2F8695492F462B582F5D2911
:10259000B701CA011F910F91FF90EF90DF9008954E
:1025A000FC01DB01408151812281622F6F7770E055
:1025B000221F2227221F9381892F880F822B282FE9
:1025C00030E0991F9927991F11969C931197211517
:1025D0003105A9F5411551056105710511F482E038
:1025E00037C082E89FEF13969C938E9312979A01BF
:1025F000AB0167E0220F331F441F551F6A95D1F7C7
:1026000083E08C930DC0220F331F441F551F129679
:102610008D919C911397019713969C938E9312978B
:10262000203080E0380780E0480780E4580758F3FE
:1026300014962D933D934D935C93179708952F3FD8
:10264000310579F4411551056105710519F484E0EE
:102650008C93089564FF03C081E08C9312C01C9298
:1026600010C02F57304013963C932E93129783E05F
:102670008C9387E0440F551F661F771F8A95D1F70B
:10268000706414964D935D936D937C9317970895A2
:102690001F93DC01FB019C91923008F447C08081BC
:1026A000823008F443C0943051F411961C91843068
:1026B00099F58181682F70E0611B71093FC08430FA
:1026C00021F0923031F48230B9F18181882389F18F
:1026D0002DC011961C9111978230F1F0818118174D
:1026E000D9F412962D913C91139782819381821790
:1026F000930794F028173907BCF014968D919D919B
:102700000D90BC91A02D24813581468157812817D9
:1027100039074A075B0718F4112341F00AC08217F2
:102720009307A407B50740F4112319F061E070E0A6
:1027300005C06FEF7FEF02C060E070E0CB011F913A
:102740000895CF93DF93BC018230910510F462E0CD
:1027500070E0A0918C01B0918D01ED01E0E0F0E01E
:1027600040E050E021C0888199818617970769F47D
:102770008A819B81309719F09383828304C0909360
:102780008D0180938C01FE0134C06817790738F4FD
:102790004115510519F08417950708F4AC01FE01A5
:1027A0008A819B819C01E9012097E9F64115510539
:1027B000A9F1CA01861B970B049708F4BA01E0E05F
:1027C000F0E02AC08D919C91119784179507F9F438
:1027D0006417750781F412968D919C911397309729
:1027E00019F09383828304C090938D0180938C01B0
:1027F000FD0132964FC0CA01861B970BFD01E80F01
:10280000F91F6193719302978D939C9343C0FD01CF
:10281000828193819C01D9011097A1F680918A0150
:1028200090918B01892B41F48091760190917701F1
:1028300090938B0180938A014091780150917901A6
:102840004115510541F44DB75EB7809174019091E7
:102850007501481B590B20918A0130918B01241777
:102860003507B0F4CA01821B930B8617970780F0D7
:10287000AB014E5F5F4F8417950750F0420F531F17
:1028800050938B0140938A01F9016193719302C0C7
:10289000E0E0F0E0CF01DF91CF910895CF93DF9397
:1028A000009709F450C0EC0122971B821A82A09174
:1028B0008C01B0918D01109709F140E050E0AC1708
:1028C000BD0708F1BB83AA83FE0121913191E20F7C
:1028D000F31FAE17BF0779F48D919C911197280FC4
:1028E000391F2E5F3F4F3983288312968D919C911B
:1028F00013979B838A834115510571F4D0938D0101
:10290000C0938C0120C012968D919C911397AD01BC
:10291000009711F0DC01D3CFFA01D383C283219158
:102920003191E20FF31FCE17DF0769F48881998197
:10293000280F391F2E5F3F4FFA01318320838A8190
:102940009B8193838283DF91CF910895DC0101C045
:102950006D9341505040E0F70895A0E0B0E0E3EB04
:10296000F4E10C941D15FC014B015A016901D901D8
:1029700013968C9181FF1EC07F01C0E0D0E014C08F
:10298000D6011896ED91FC911997D7018C91B6015B
:102990000995892B89F40894E11CF11C0F5F1F4FE6
:1029A0000815190568F32196CA15DB0528F400E01F
:1029B00010E0F6CFC0E0D0E0CE01CDB7DEB7ECE05E
:1029C0000C9439150F931F93CF93DF938C01E091F3
:1029D0009001F0919101838181FF21C0C0E0D0E09E
:1029E0000DC0E0919001F091910120853185BF01EA
:1029F000F9010995892B11F0CFEFDFEFF8018191F3
:102A00008F01882371F7E0919001F0919101208569
:102A100031858AE0BF01F9010995892B11F0CFEFCB
:102A2000DFEFCE01DF91CF911F910F9108952F928B
:102A30003F924F925F926F927F928F929F92AF924E
:102A4000BF92CF92DF92EF92FF920F931F93CF939B
:102A5000DF93CDB7DEB7CA1BDB0B0FB6F894DEBF32
:102A60000FBECDBF09942A88398848885F846E8458
:102A70007D848C849B84AA84B984C884DF80EE80A2
:102A8000FD800C811B81AA81B981CE0FD11D0FB6AB
:102A9000F894DEBF0FBECDBFED010895F894FFCFCF
:102AA0006D616C6C6F63206572726F722100496E8C
:102AB0006974204F4B210001010101010101010155
:102AC00002030405060708090A0A0908070605049F
:102AD0000302010102030405060708090A0A09089E
:102AE000070605040302010000000300000000A225
:102AF0000C000000002A72696E672A0A00555341D3
:102B0000525420496E6974204F4B21000000000090
:0A2B10000000000020009401000006
:00000001FF
